:1004D0000102040810204080FEFDFBF7EFDFBF7F24
:1004E0003F065B4F666D7D077F6F000000000000D8
:0304F00000000009
:1003FE0020400A0000000000000000000000000085
:10040E0000000000000000000000000000000201DB
:10041E0000000000000001020000000000000000CB
:10042E0000000000000000000000000000000000BE
:10043E00000000084B3F78747B06065C00014A0002
:06044E0001080001090095
:1004550078637C007D007BFF7A0479EB7E007F0862
:100465001200F612053F120003756E00756F0075D8
:1004750070537B007A00790A120344756E00756F1C
:100485000075705B7B007A00790A1203A1756E0016
:10049500756F0075705B7B007A0079531202E680F8
:0104A500C88E
:10053F00759850438920758DFDD28ED2AFD2AC22E3
:08000300438901D28CD2A9222D
:0602E6008B6B8A6C896D30
:1002EC00E4F571E5719004D093FF120514AB6BAA81
:1002FC006CA96D857182758300120135F4FF7DFF49
:10030C0012054F120559AB6EAA6FA97085718275D3
:10031C008300120135F4FD7FFF12054F1205597F42
:10032C000112000E7DFF7FFF12054F12055905715A
:07033C00E571C3940840AC19
:010343002297
:060344008B6B8A6C896DD1
:10034A00E4F571F573E4F572E573C313F573E572B9
:10035A0075F008A4AB6B256DF9E56C35F0FA7E00F3
:10036A00E92571F9EE3AFA12011CB40103437380CC
:10037A000572E572B408D1C374079571FFE494005D
:10038A00AB6EAA6FA9708F82F583E57312016205BD
:06039A0071E571B408AF2B
:0103A000223A
:0603A1008B6B8A6C896D74
:1003A700E4F571F573E4F572E573C313F573E5725C
:1003B70075F008A4AB6B256DF9E56C35F0FA7E0096
:1003C700E92571F9EE3AFA12011CB402034373806E
:1003D7000572E572B408D1C374079571FFE4940000
:1003E700AB6EAA6FA9708F82F583E5731201620560
:0603F70071E571B408AFCE
:0103FD0022DD
:10051400E4FEC2A1EF3392A0EF25E0FFD2A10EBE0C
:0705240008F0D2A200C2A200
:01052B0022AD
:0A054F008D7212052CAF7202052C0C
:10052C00E4FEC291EF339292EF25E0FFD2910EBE22
:02053C0008F0C5
:01053E00229A
:06055900D29000C29022C6
:10000E008F721572E572600C7FF512055F7FF51227
:05001E00055F80EE22E9
:03055F00DFFE229A
:1004A600E4F580D2A5C2A5E5089004D893F580D2DC
:1004B600A6C2A6744B2508F8E6F580D2A5C2A50506
:0904C60008E508B40803E4F50898
:0104CF00220A
:0300230002018453
:10018400C0E0C0F0C083C082C0D075D000C000C041
:010194000763
:10019500754D00754E00754F00755000209803028F
:1001A500024BE54A6401700302024BC298AF99BF46
:1001B5004703754A01E509B44009EF9004B093F58A
:1001C5004B8079E509B44109EF9004B093F54C8073
:1001D5006BE509B44209EF9004B093F551805DE5F4
:1001E50009B44309EF9004B093F552804FBF30181E
:1001F500E509131313541F75F008A4240AF8E5093B
:10020500540728F876008034BF3118E50913131315
:10021500541F75F008A4240AF8E509540728F87650
:10022500018019BF3216E509131313541F75F00821
:10023500A4240AF8E509540728F876020509E50912
:06024500B444037509003A
:0F024B00D007D000D0D0D082D083D0F0D0E03216
:03000B000204F3F9
:1004F300C0E0C083C082C0D075D000C0001204A683
:10050300758CF8758A30D000D0D0D082D083D0E0FB
:0105130032B5
:0300000002025A9F
:0C025A00787FE4F6D8FD7581730202A1E4
:10002600E709F608DFFA8046E709F208DFFA803EBC
:1000360088828C83E709F0A3DFFA8032E309F608A9
:10004600DFFA8078E309F208DFFA807088828C8311
:10005600E309F0A3DFFA806489828A83E0A3F608C5
:10006600DFFA805889828A83E0A3F208DFFA804C9F
:1000760080D280FA80C680D4806980F28033801076
:1000860080A680EA809A80A880DA80E280CA8033DF
:1000960089828A83ECFAE493A3C8C582C8CCC58357
:1000A600CCF0A3C8C582C8CCC583CCDFE9DEE78027
:1000B6000D89828A83E493A3F608DFF9ECFAA9F0A6
:1000C600EDFB2289828A83ECFAE0A3C8C582C8CCFC
:1000D600C583CCF0A3C8C582C8CCC583CCDFEADE15
:1000E600E880DB89828A83E493A3F208DFF980CC77
:1000F60088F0EF60010E4E60C388F0ED2402B40470
:100106000050B9F582EB2402B4040050AF23234516
:06011600822390007673C5
:10011C00BB010689828A83E0225002E722BBFE02E1
:09012C00E32289828A83E4932214
:10013500BB010CE58229F582E5833AF583E022507F
:1001450006E92582F8E622BBFE06E92582F8E222C9
:0D015500E58229F582E5833AF583E49322E3
:10016200F8BB010DE58229F582E5833AF583E8F0D3
:10017200225006E92582C8F622BBFE05E92582C87F
:02018200F22267
:10026600020455E493A3F8E493A34003F68001F255
:1002760008DFF48029E493A3F85407240CC8C33399
:10028600C4540F4420C8834004F456800146F6DF68
:10029600E4800B01020408102040809003FEE47EF7
:1002A600019360BCA3FF543F30E509541FFEE4935D
:1002B600A360010ECF54C025E060A840B8E493A324
:1002C600FAE493A3F8E493A3C8C582C8CAC583CA4F
:1002D600F0A3C8C582C8CAC583CADFE9DEE780BE07
:0104540000A7
:00000001FF
